{
  "hex": "010000000198ed4c18806db218eaf8479ce5526983f56a2e3ed405ef00c61064d562c2318200000000694630430220273f9371a1b2db0bab5b6ee958ac42c22df4fe5f45270ea078f9fb7d7955c960021f422025019f1f3b5a60ee0bb4d989a526d10cbf3ffed0afed0801eb5cfc182d01210204db3c8de6fa529d096918ecb8d41793adc34d961d24c12672e694ea4356b012ffffffff0200e1f505000000001976a91435cfeedcdf964f8114a0b723b0de7f9eab8ee57688ac36fa154e020000001976a914828ba9aad3b804a1681cd193ed80d8bc0c6815be88ac00000000",
  "txid": "2406475a122bb0bce75655012d4fad5d7cd94528cad4c528cdfc1db2ae15a2a8",
  "version": 1,
  "locktime": 0,
  "vin": [
    {
      "txid": "8231c262d56410c600ef05d43e2e6af5836952e59c47f8ea18b26d80184ced98",
      "vout": 0,
      "scriptSig": {
        "asm": "30430220273f9371a1b2db0bab5b6ee958ac42c22df4fe5f45270ea078f9fb7d7955c960021f422025019f1f3b5a60ee0bb4d989a526d10cbf3ffed0afed0801eb5cfc182d01 0204db3c8de6fa529d096918ecb8d41793adc34d961d24c12672e694ea4356b012",
        "hex": "4630430220273f9371a1b2db0bab5b6ee958ac42c22df4fe5f45270ea078f9fb7d7955c960021f422025019f1f3b5a60ee0bb4d989a526d10cbf3ffed0afed0801eb5cfc182d01210204db3c8de6fa529d096918ecb8d41793adc34d961d24c12672e694ea4356b012"
      },
      "sequence": 4294967295
    }
  ],
  "vout": [
    {
      "value": 100000000,
      "n": 0,
      "scriptPubKey": {
        "asm": "OP_DUP OP_HASH160 35cfeedcdf964f8114a0b723b0de7f9eab8ee576 OP_EQUALVERIFY OP_CHECKSIG",
        "hex": "76a91435cfeedcdf964f8114a0b723b0de7f9eab8ee57688ac",
        "reqSigs": 1,
        "type": "pubkeyhash",
        "address": "CMNRUegEbZgyFN6pWz86jwFV27NQQATZDM"
      }
    },
    {
      "value": 9899997750,
      "n": 1,
      "scriptPubKey": {
        "asm": "OP_DUP OP_HASH160 828ba9aad3b804a1681cd193ed80d8bc0c6815be OP_EQUALVERIFY OP_CHECKSIG",
        "hex": "76a914828ba9aad3b804a1681cd193ed80d8bc0c6815be88ac",
        "reqSigs": 1,
        "type": "pubkeyhash",
        "address": "CUN9ivCkr2JiUBAJgc3pn6JJU2RZpJdVmt"
      }
    }
  ],
  "blockhash": "000000181c9ac1e66b378a07f68ee9a1f4f00ce403625272a59477b3ef630161",
  "confirmations": 127,
  "time": 1575432403,
  "blocktime": 1575432403
}
